:020000040000fa
:080000000002040000000000f2
:020000040000fa
:100400002f842000007f21000001880000000000f0
:100410000c000700e0c220000100200011000700ce
:10042000000020000000e000020032000000020096
:1004300000000000c2020200000000000040da00dc
:100440000000fe004440a900000020000000e00081
:100450000300320000002000a00188004440a800f2
:100460000000060091018800800078000000eb0089
:1004700015003700e280400032a0b4009101ba00bc
:10048000e280400032a0b4009102ba00e280400055
:1004900032a0b4000002eb00472bde00f507b200eb
:1004a000602ce10004003a000059eb008301e900f0
:1004b000fdff3e00040037006128e100010032002a
:1004c0000082eb00040007001101ba000200e00006
:1004d000e8ff3a00000006003159ba008301e90044
:1004e0000c0032002159ba008301e90008003200f3
:1004f0000400e00003003a00e280400032a0b400b3
:10050000f5ff370011d9ba008301e900faff3a007c
:100510008100e800e180400032a0b4000000060045
:100520006022b800060220000000d0008180d200c6
:100530000482d2008582d2000000a0000202520094
:1005400083825a00030031000202420083824a0083
:100550000000a1000603e900f3ff3a0000000600d6
:10056000614060004500dd0001742000914078008a
:100570000154a10080c070000100780040e7b7007e
:040580000000060071
:020000040000fa
:0457f8008ff9000025
:020000040000fa
:0457fc006a3f000000
:020000040000fa
:10000800420c0000420c0000420c0000420c0000b0
:10001800420c0000420c0000420c0000420c0000a0
:10002800420c0000420c0000420c0000ae0600002a
:10003800420c0000420c0000420c0000ce060000fa
:10004800ee060000420c0000420c0000420c0000ca
:10005800420c0000420c0000420c0000420c000060
:10006800420c0000420c0000420c00001a0600007e
:10007800420c0000420c0000420c0000420c000040
:10008800420c0000420c0000420c00000e07000069
:100098002e070000420c0000420c0000420c000039
:1000a800420c0000420c0000420c0000420c000010
:1000b800420c0000420c0000420c0000420c000000
:1000c800420c0000420c0000420c0000420c0000f0
:1000d800420c0000420c0000420c0000420c0000e0
:1000e800420c0000420c0000420c0000420c0000d0
:1000f800420c0000420c0000420c0000420c0000c0
:10010800420c0000420c0000420c0000420c0000af
:10011800420c0000420c0000420c0000420c00009f
:10012800420c0000420c0000420c0000420c00008f
:10013800420c0000420c0000420c0000420c00007f
:10014800420c0000420c0000420c0000420c00006f
:10015800420c0000420c0000420c0000420c00005f
:10016800420c0000420c0000420c0000420c00004f
:10017800420c0000420c0000420c0000420c00003f
:10018800420c0000420c0000420c0000420c00002f
:10019800420c0000420c0000420c0000420c00001f
:1001a800420c0000420c0000420c0000420c00000f
:1001b800420c0000420c0000420c0000420c0000ff
:1001c800420c0000420c0000420c0000420c0000ef
:1001d800420c0000420c0000420c0000420c0000df
:1001e800420c0000420c0000420c0000420c0000cf
:0801f800420c0000420c000063
:020000040000fa
:10020800420c0000420c0000420c0000420c0000ae
:10021800420c0000420c0000420c0000420c00009e
:10022800420c0000420c0000420c0000ae06000028
:10023800420c0000420c0000420c0000ce060000f8
:10024800ee060000420c0000420c0000420c0000c8
:10025800420c0000420c0000420c0000420c00005e
:10026800420c0000420c0000420c00001a0600007c
:10027800420c0000420c0000420c0000420c00003e
:10028800420c0000420c0000420c00000e07000067
:100298002e070000420c0000420c0000420c000037
:1002a800420c0000420c0000420c0000420c00000e
:1002b800420c0000420c0000420c0000420c0000fe
:1002c800420c0000420c0000420c0000420c0000ee
:1002d800420c0000420c0000420c0000420c0000de
:1002e800420c0000420c0000420c0000420c0000ce
:1002f800420c0000420c0000420c0000420c0000be
:10030800420c0000420c0000420c0000420c0000ad
:10031800420c0000420c0000420c0000420c00009d
:10032800420c0000420c0000420c0000420c00008d
:10033800420c0000420c0000420c0000420c00007d
:10034800420c0000420c0000420c0000420c00006d
:10035800420c0000420c0000420c0000420c00005d
:10036800420c0000420c0000420c0000420c00004d
:10037800420c0000420c0000420c0000420c00003d
:10038800420c0000420c0000420c0000420c00002d
:10039800420c0000420c0000420c0000420c00001d
:1003a800420c0000420c0000420c0000420c00000d
:1003b800420c0000420c0000420c0000420c0000fd
:1003c800420c0000420c0000420c0000420c0000ed
:1003d800420c0000420c0000420c0000420c0000dd
:1003e800420c0000420c0000420c0000420c0000cd
:0803f800420c0000420c000061
:020000040000fa
:100584000600fa0000202100a1072000008fbe0011
:10059400950007001e01be000040eb003e0207006c
:1005a4001e01be0010c0b3003b0207001e01be00c6
:1005b40030c0b3003802070094010700bd000700f3
:1005c40070002000f041880000003700f0418000f6
:1005d400200798002e009000e40f50003e003200e7
:1005e4002e009000e40f50000a003e002e00900000
:1005f400e20f5000110032002e009000e20f500074
:1006040028003e002e009000e10f50001800320038
:100614006a0037002e009000e60f50004e003200b2
:100624002e009000e60f50003a0039002e00900092
:10063400e70f50005300320060003700c422a900c5
:100644001000200087000700cc42a8008000eb00c7
:1006540002482800e301200030c0b3002f02070045
:100664006401070060002000f0418800d7ff3700d4
:10067400c402a900100020007a000700cc42a800a0
:100684008000eb0002d420003300200030c0b3000f
:10069400220207004401070060002000f0418800a6
:1006a400caff3700cc82a900100020006d000700ab
:1006b400cc42a8008000eb0002d4200033002000cc
:1006c40030c0b30015020700fa00070060002000e4
:1006d400f0418800bdff3700cce2a90010002000e3
:1006e40060000700cc42a8008000eb0002d4200088
:1006f4003300200030c0b30008020700ed000700fb
:10070400ec000700eb00070060002000f0418800c7
:10071400aeff3700cd22a9001000200051000700d1
:10072400cc42a8008000eb0002d42000330020005b
:1007340030c0b300f9010700de000700dd00070048
:10074400dc000700db000700da000700600020007f
:10075400f04188009dff37009660a90030c0b300c7
:10076400ab0207000000e00098ff3a007000200090
:10077400f04188000040eb0073000700cd62a9003f
:1007840092ff3700cd22a800cce2a800cc82a800ba
:10079400cc62a800c402a800c422a800cc42a900cc
:1007a4009660a800100020006cff07008000200065
:1007b400f04188006000070084ff37000000eb0070
:1007c40066ff0700cc62a9008000eb00026a2800e3
:1007d4001300200030c0b300d001070060002000e7
:1007e400f041880079ff37000000fa000000eb00b8
:1007f400e04188000080eb0060198800c0fe2f00f3
:100804000016880030162c0040168800d10a2000fb
:1008140091407800f0c8b30000c0600001c5b30087
:1008240001407000ade0b7006160a8006180a800dd
:1008340062c0a8006300a8006360a8006960a80003
:100844006980a8006ac0a8006b00a8006b60a800bb
:100854008660a9009660a8000000eb000080fa0002
:10086400000006000400fa00100798000000eb00e6
:10087400000f78000a0037008000eb00823e200061
:10088400030020000040eb00a40107000040eb003f
:100894005f0207000000e000fcff3a001e0fe800c2
:1008a4001e0090009e0f1000f3ff39000080fa0034
:1008b400000006000000fa00c402a800c422a80038
:1008c400cc62a800cc82a800cce2a800cd22a8006b
:1008d400c402a90080022000e2ff0700c402a800ad
:1008e400c422a90080022000deff0700c422a80061
:1008f400cc62a90080022000daff0700cc62a800c5
:10090400cc82a90080022000d6ff0700cc82a80078
:10091400cce2a90080022000d2ff0700cce2a800ac
:10092400cd22a90080022000ceff0700cd22a8001e
:100934000080fa00000006000000fa000040fe00fb
:100944000080fa00000006000200fa00004f780060
:10095400cda2a900cd82a900cd42a800cd42a90014
:10096400cd42a800cd42a900cd42a8001e40780087
:100974000004e00002003d00cda2a8000100370001
:10098400cda2a900cd42a900cd42a8001e80fb0043
:100994004600de00610060000004e0000200320056
:1009a400cda2a80001003700cda2a900cd42a90024
:1009b400cd42a8001e80fb004500de0061006000ff
:1009c4000004e00002003200cda2a80001003700bc
:1009d400cda2a900cd42a900cd42a8001e80fb00f3
:1009e4004400de00610060000004e0000200320008
:1009f400cda2a80001003700cda2a900cd42a900d4
:100a0400cd42a8001e80fb004300de0061006000b0
:100a14000004e00002003200cda2a800010037006b
:100a2400cda2a900cd42a900cd42a8001e80fb00a2
:100a34004200de00610060000004e00002003200b9
:100a4400cda2a80001003700cda2a900cd42a90083
:100a5400cd42a8001e80fb000000d10061006000b0
:100a64000004e00002003200cda2a800010037001b
:100a7400cda2a900cd42a900cd42a8001e80fb0052
:100a8400610060000004e00002003200cda2a80072
:100a940001003700cda2a900cd42a900cd42a80093
:100aa400cd42a900cda2a900cd82a8000080fa0001
:100ab400000006000600fa0020c3b300004f7800cf
:100ac400f00f200010079800cd62a8000040eb0052
:100ad4009dff070020c3b3009bff070040c6b3007f
:100ae40099ff070060c9b30097ff070080ccb300eb
:100af40095ff070000c0eb0093ff07000040eb00e8
:100b040040479800220037001e0090008eff070027
:100b14004e409000e24f500006003e001e00900040
:100b24006d00b900e2002000110009000280d80025
:100b3400100798004e409000e34f50000a00360022
:100b44004e409000e44f500007003e001e0090000d
:100b54007300b90042012000110009000280d8008e
:100b640010079800070037009e0090001003200033
:100b74000088b90022032000110009000280d80077
:100b8400100798004e4090000040e800404798004d
:100b94004e4090009e4f5000dbff3900cd62a9000b
:100ba4000080fa00000006000000fa00cd62a800f0
:100bb40000c0eb0064ff070000c0eb0062ff070009
:100bc40000c0eb0060ff070000c0eb005eff070001
:100bd40000c0eb005cff070000c0eb005aff0700f9
:100be4000040eb0058ff0700cd62a9000080fa0026
:100bf400000006000000fa00cd62a80000c0eb006f
:100c040051ff07000080fa00000006000000fa000f
:100c1400cd42a900cd82a800cda2a900cd62a90031
:100c24000040eb0048ff07000080fa0000000600c7
:100c34003600f800809fbe00829fbe00849fbe00e5
:100c4400869fbe000000fa008660a9000000eb0049
:100c540042fe0700501680000000e000020035004c
:100c640020002000f0418800501680004e00de0075
:100c7400610060000000e00002003a001000200063
:100c8400f0418800501680004500de0061006000dd
:100c94000000e00002003a0030002000f04188002b
:100ca400501680004600de00610060000000e00095
:100cb40002003a0040002000f041880050168000f5
:100cc4004800de00610060000000e00002003a001d
:100cd40050002000f0418800501680000000e00021
:100ce40016003d00501680004e00de0061006000da
:100cf4000000e00011003200501680004500de00c4
:100d0400610060000000e0000c003200501680001a
:100d14004600de00610060000000e00007003200d1
:100d2400501680004800de00610060000000e00012
:100d34000200320070002000f04188000080fa00b8
:100d44004f03be004f02be004f01be004f00be0065
:100d54003600f900004006003600f800809fbe000f
:100d6400829fbe00849fbe00869fbe000000fa00e2
:100d74008460a9000040eb00340107000080fa0001
:100d84004f03be004f02be004f01be004f00be0025
:100d94003600f900004006003600f800809fbe00cf
:100da400829fbe00849fbe00869fbe000000fa00a2
:100db40084e0a90010c0b300240107000080fa00f9
:100dc4004f03be004f02be004f01be004f00be00e5
:100dd4003600f900004006003600f800809fbe008f
:100de400829fbe00849fbe00869fbe000000fa0062
:100df4008500a90020c0b300140107000080fa0098
:100e04004f03be004f02be004f01be004f00be00a4
:100e14003600f900004006003600f800809fbe004e
:100e2400829fbe00849fbe00869fbe000000fa0021
:100e34008760a90030c0b300040107000080fa00f5
:100e44004f03be004f02be004f01be004f00be0064
:100e54003600f900004006003600f800809fbe000e
:100e6400829fbe00849fbe00869fbe000000fa00e1
:100e74008780a90040c0b300f40007000080fa0096
:100e84004f03be004f02be004f01be004f00be0024
:100e94003600f900004006000600fa00881f7800ba
:100ea400004f780012079800230798001e00900056
:100eb400ae0090000200240023f4200097fd0700f8
:100ec40061014000e0814800000020001100200082
:100ed40092fd0700f0408800014188001e84fb0059
:100ee4001e009000ae00900002242400f3002000b5
:100ef4008afd07000001be00c240dd00a080200082
:100f0400008040000288be001e407800ba0007003e
:100f14004f0478000080fa00000006000e00fa007a
:100f240040479800320798004307980051079800fb
:100f34004e4090000080fb00c200dd008082200053
:100f4400008040003e019000ce0190000288be0067
:100f54004e4090000080fb00800040000080200094
:100f640000804000de01900003087800f240800019
:100f7400034180003e009000ce009000820f50009c
:100f8400838f580004003600f04080000141800047
:100f940030079800410798004e4090000082fb0003
:100fa4004e4090000080fb00c200dd0080822000e3
:100fb400008040001001be003e009000ce00900072
:100fc4000001510081815900c220dd00808220008f
:100fd400008040000288be004e4090008080fb00ec
:100fe400208220008080400010c0b3008048780038
:100ff4004e4090000080fb00c200dd00a080200075
:10100400008040001003be00860078003e0090007f
:10101400000ab8004e00900000b0b9000501780045
:10102400000141003e0090000780b900000141002a
:10103400820278004829dd004820de0000007100ab
:10104400c828de00008fbe004e4090000080fb00e8
:1010540060079800ee019000e28f51002b003200ef
:101064006e009000e20f500007003c00ee0090007c
:101074000100e0000b0032006e019000e10f51000e
:101084001500320047003700ee019000e38f510055
:101094002b0032006e009000e40f50003500320047
:1010a400400037001e007800100888000000eb00a4
:1010b400000888008460a9009460a8004110200002
:1010c4009140780000c3b30000c0700004e1b70091
:1010d40005e1a800330037001e007800600888008e
:1010e4000000eb003008880084e0a90094e0a80028
:1010f400011120009140780000c3b30000c07000cb
:1011040010e1b70011e1a800260037001e007800a6
:10111400700888000000eb00500888008500a900d2
:101124009500a800211120009140780000c3b3006d
:1011340000c0700012e1b70013e1a80019003700e5
:101144001e007800d00888000000eb00a00888008a
:101154008760a9009760a800e11120009140780001
:1011640000c3b30000c070001ee1b7001fe1a80077
:101174000c0037001e007800e00888000000eb0037
:10118400c00888008780a9009780a8000112200069
:101194009140780000c3b30000c0700020e1b700a4
:1011a40021e1a8000080fa00000006000200fa0015
:1011b400004f78001e407800980007001e80fb0056
:1011c4008000400000802000008040001000780073
:1011d4000000e000060032001e80fb00800040009a
:1011e4000080200000804000100078000000010012
:1011f4000080fa00000006000200fa00004f7800a8
:101204001e407800850007000080fa0000000600f8
:101214000400fa00004f78009e80fb00208220002a
:1012240000804000104078008000eb001107980017
:10123400e14f500002003a0010002000100798000f
:101244001e0090000080fa00000006000800fa006a
:10125400889fbe00404798004e4090000080fb00ed
:10126400c200dd0080822000008040001000be002b
:10127400e00f5000e08f5800630032004e409000b1
:101284000080fb00c200dd0080822000008040005e
:101294001001be00f040800001418000800f510029
:1012a400818f5900470031004e4090000080fb00c0
:1012b400c200dd0080822000008040001004be00d7
:1012c4004e4090000080fb00c200dd00a0802000a2
:1012d400008040001003be008800780006007800fb
:1012e400000ab80007c0b9000501780000014100f8
:1012f40009b0b90000014100820278004829dd00ec
:101304004820de0000007100c828de00008fbe0007
:101314004e4090000080fb00300798003e00900093
:10132400e20f5000170032003e019000e20f51001e
:1013340007003c003e0090000000e0000b0032007b
:101344003e019000e10f51000b0032001500370000
:101354003e009000e30f50000d0032003e0190006b
:10136400e40f51000d0032000e0037001e0078001b
:10137400100888000b0037001e0078006008880001
:10138400080037001e007800700888000500370048
:101394001e007800d0088800020037001e00780084
:1013a400e00888004e4090000080fb00c200dd0091
:1013b40080822000008140006000b8000089be00e7
:1013c400130037004e4090000082fb004e40900016
:1013d4000080fb00c200dd0080822000008040000d
:1013e4001001be00f0408000014180000001510066
:1013f40081815900c220dd008082200000804000ed
:101404000288be00020037004e40900067ff0700cc
:101414004f04be000080fa00000006000400fa0039
:10142400004f78001e80fb00100798001e009000fb
:10143400e20f50001b0032001e009000e20f50002b
:1014440007003c001e0090000000e0000b0032008a
:101454001e009000e10f50000d0032001f00370005
:101464001e009000e30f5000130032001e00900095
:10147400e40f500015003200180037009460a900f2
:101484000000eb00200888008460a90013003700e6
:1014940094e0a9000000eb008008880084e0a90023
:1014a4000e0037009500a9000000eb0090088800aa
:1014b4008500a900090037009760a9000000eb002f
:1014c400f00888008760a900040037009780a9000d
:1014d4000000eb00000988008780a9009e80fb00c3
:1014e40020822000808040000040eb00804878008b
:1014f4000080fa00000006000000fa00a0002000ae
:10150400004288000000eb000080fa0000000600a2
:101514000400fa00000f7800ff3ffc00e041800067
:101524000000e800e04188007200200081072000ec
:10153400a009200033742000814978008049780094
:101544008249780012002000610420007005200008
:10155400237420008149780080497800824978000a
:101564001e007800674060006741600051742000ed
:101574009140780080cfb30000c06000024070004a
:1015840045e7b70042c7bf00614060000004e000c7
:10159400fcff3a00e04180000000e000030032005c
:1015a400e04180000000e900e0418800e041800063
:1015b4000000e00001003a000000fc001e0078007a
:1015c400100798009e019000e38f51002300320021
:1015d4001e009000e30f500007003e009e019000a3
:1015e400e18f5100230032001e009000e10f5000f3
:1015f4001d003e00220037009e019000e58f51003f
:10160400100032001e009000e50f50001000390059
:101614009e019000e68f5100070032001e009000ea
:10162400e70f500001003200170037000000eb0004
:101634000042880014003700200020000042880087
:101644001100370030002000004288000e003700ef
:1016540040002000004288000b00370050002000aa
:101664000042880008003700600020000042880023
:101674000500370070002000004288000200370097
:1016840080002000004288000000eb000080fa0087
:10169400000006000000fa00ff3ffc00e04180006b
:1016a4000000e800e041880052002000810720008b
:1016b400a009200033742000814978008049780013
:1016c4008249780012002000610420007005200087
:1016d4002374200081497800804978008249780089
:1016e40042c7bf00614060000004e000fcff3a0014
:1016f400e04180000000e00003003200e04180008f
:101704000000e900e0418800e04180000000e000c2
:1017140001003a000000fc00100020000042880094
:101724000000eb000080fa00000006000200fa004e
:10173400000f780043c7bf000047b2000004e00078
:1017440005003a001e01780000902000d10320001b
:101754000089be003d00370043c7bf0002c7b30085
:101764008240600000c5b30080cf500005003a00fd
:101774001e01780000e82300010020000089be005b
:101784003200370043c7bf000047b200f04f50009b
:101794000e003a0045c7bf00674060000081fb00af
:1017a40000402200410f2000820178008301e900fb
:1017b400030033008180d1000080d300fbff370099
:1017c4001e0178000089be002000370043c7bf0017
:1017d40002c7b3008240600000c7b30080cf50004e
:1017e40016003a0045c7bf00674060000081fb0057
:1017f40000902000d1032000820178008301e900d9
:10180400030033008180d1000080d300fbff370048
:101814001e0178000089be0045c7bf006740600014
:10182400e74f500009003a001e01780080a9230008
:10183400010020000089be00040037001e0178006a
:1018440000402200410f20000089be000000eb0090
:081854000080fa00000006000c
:020000040000fa
:10185c004008000002000000000000003c080000ee
:10186c000400000000000000000800003c00000024
:08187c00000000000000000064
:020000040000fa
:041884000000fe0062
:00000001FF
